{
  "_format": "hh-sol-artifact-1",
  "contractName": "UseSwap",
  "sourceName": "contracts/UseSwap.sol",
  "abi": [
    {
      "inputs": [
        {
          "internalType": "address",
          "name": "_uniswapRouter",
          "type": "address"
        }
      ],
      "stateMutability": "nonpayable",
      "type": "constructor"
    },
    {
      "inputs": [
        {
          "internalType": "address",
          "name": "tokenA",
          "type": "address"
        },
        {
          "internalType": "address",
          "name": "tokenB",
          "type": "address"
        },
        {
          "internalType": "uint256",
          "name": "amountADesired",
          "type": "uint256"
        },
        {
          "internalType": "uint256",
          "name": "amountBDesired",
          "type": "uint256"
        },
        {
          "internalType": "uint256",
          "name": "amountAMin",
          "type": "uint256"
        },
        {
          "internalType": "uint256",
          "name": "amountBMin",
          "type": "uint256"
        },
        {
          "internalType": "address",
          "name": "to",
          "type": "address"
        },
        {
          "internalType": "uint256",
          "name": "deadline",
          "type": "uint256"
        }
      ],
      "name": "handleAddLiquidity",
      "outputs": [],
      "stateMutability": "nonpayable",
      "type": "function"
    },
    {
      "inputs": [
        {
          "internalType": "uint256",
          "name": "amountOut",
          "type": "uint256"
        },
        {
          "internalType": "uint256",
          "name": "amountInMax",
          "type": "uint256"
        },
        {
          "internalType": "address[]",
          "name": "path",
          "type": "address[]"
        },
        {
          "internalType": "address",
          "name": "to",
          "type": "address"
        },
        {
          "internalType": "uint256",
          "name": "deadline",
          "type": "uint256"
        }
      ],
      "name": "handleSwap",
      "outputs": [],
      "stateMutability": "nonpayable",
      "type": "function"
    },
    {
      "inputs": [],
      "name": "owner",
      "outputs": [
        {
          "internalType": "address",
          "name": "",
          "type": "address"
        }
      ],
      "stateMutability": "view",
      "type": "function"
    },
    {
      "inputs": [],
      "name": "swapCount",
      "outputs": [
        {
          "internalType": "uint256",
          "name": "",
          "type": "uint256"
        }
      ],
      "stateMutability": "view",
      "type": "function"
    },
    {
      "inputs": [],
      "name": "uniswapRouter",
      "outputs": [
        {
          "internalType": "address",
          "name": "",
          "type": "address"
        }
      ],
      "stateMutability": "view",
      "type": "function"
    }
  ],
  "bytecode": "0x60806040523480156200001157600080fd5b506040516200113738038062001137833981810160405281019062000037919062000129565b806000806101000a81548173ffffffffffffffffffffffffffffffffffffffff021916908373ffffffffffffffffffffffffffffffffffffffff16021790555033600160006101000a81548173ffffffffffffffffffffffffffffffffffffffff021916908373ffffffffffffffffffffffffffffffffffffffff160217905550506200015b565b600080fd5b600073ffffffffffffffffffffffffffffffffffffffff82169050919050565b6000620000f182620000c4565b9050919050565b6200010381620000e4565b81146200010f57600080fd5b50565b6000815190506200012381620000f8565b92915050565b600060208284031215620001425762000141620000bf565b5b6000620001528482850162000112565b91505092915050565b610fcc806200016b6000396000f3fe608060405234801561001057600080fd5b50600436106100575760003560e01c806310e4584d1461005c5780632eff0d9e146100785780636873f48014610096578063735de9f7146100b25780638da5cb5b146100d0575b600080fd5b61007660048036038101906100719190610854565b6100ee565b005b61008061036a565b60405161008d91906108fd565b60405180910390f35b6100b060048036038101906100ab9190610918565b610370565b005b6100ba6106fd565b6040516100c791906109dd565b60405180910390f35b6100d8610721565b6040516100e591906109dd565b60405180910390f35b83836000818110610102576101016109f8565b5b90506020020160208101906101179190610a27565b73ffffffffffffffffffffffffffffffffffffffff166323b872dd3330886040518463ffffffff1660e01b815260040161015393929190610a54565b6020604051808303816000875af1158015610172573d6000803e3d6000fd5b505050506040513d601f19601f820116820180604052508101906101969190610ac3565b50838360008181106101ab576101aa6109f8565b5b90506020020160208101906101c09190610a27565b73ffffffffffffffffffffffffffffffffffffffff1663095ea7b360008054906101000a900473ffffffffffffffffffffffffffffffffffffffff16876040518363ffffffff1660e01b815260040161021a929190610af0565b6020604051808303816000875af1158015610239573d6000803e3d6000fd5b505050506040513d601f19601f8201168201806040525081019061025d9190610ac3565b61029c576040517f08c379a000000000000000000000000000000000000000000000000000000000815260040161029390610b76565b60405180910390fd5b60008054906101000a900473ffffffffffffffffffffffffffffffffffffffff1673ffffffffffffffffffffffffffffffffffffffff16638803dbee8787878787876040518763ffffffff1660e01b81526004016102ff96959493929190610c59565b6000604051808303816000875af115801561031e573d6000803e3d6000fd5b505050506040513d6000823e3d601f19601f820116820180604052508101906103479190610e19565b5060016002600082825461035b9190610e91565b92505081905550505050505050565b60025481565b8773ffffffffffffffffffffffffffffffffffffffff166323b872dd3330896040518463ffffffff1660e01b81526004016103ad93929190610a54565b6020604051808303816000875af11580156103cc573d6000803e3d6000fd5b505050506040513d601f19601f820116820180604052508101906103f09190610ac3565b508673ffffffffffffffffffffffffffffffffffffffff166323b872dd3330886040518463ffffffff1660e01b815260040161042e93929190610a54565b6020604051808303816000875af115801561044d573d6000803e3d6000fd5b505050506040513d601f19601f820116820180604052508101906104719190610ac3565b508773ffffffffffffffffffffffffffffffffffffffff1663095ea7b360008054906101000a900473ffffffffffffffffffffffffffffffffffffffff16886040518363ffffffff1660e01b81526004016104cd929190610af0565b6020604051808303816000875af11580156104ec573d6000803e3d6000fd5b505050506040513d601f19601f820116820180604052508101906105109190610ac3565b61054f576040517f08c379a000000000000000000000000000000000000000000000000000000000815260040161054690610b76565b60405180910390fd5b8673ffffffffffffffffffffffffffffffffffffffff1663095ea7b360008054906101000a900473ffffffffffffffffffffffffffffffffffffffff16876040518363ffffffff1660e01b81526004016105aa929190610af0565b6020604051808303816000875af11580156105c9573d6000803e3d6000fd5b505050506040513d601f19601f820116820180604052508101906105ed9190610ac3565b61062c576040517f08c379a000000000000000000000000000000000000000000000000000000000815260040161062390610b76565b60405180910390fd5b60008054906101000a900473ffffffffffffffffffffffffffffffffffffffff1673ffffffffffffffffffffffffffffffffffffffff1663e8e3370089898989898989896040518963ffffffff1660e01b8152600401610693989796959493929190610ec5565b6060604051808303816000875af11580156106b2573d6000803e3d6000fd5b505050506040513d601f19601f820116820180604052508101906106d69190610f43565b5050506001600260008282546106ec9190610e91565b925050819055505050505050505050565b60008054906101000a900473ffffffffffffffffffffffffffffffffffffffff1681565b600160009054906101000a900473ffffffffffffffffffffffffffffffffffffffff1681565b6000604051905090565b600080fd5b600080fd5b6000819050919050565b61076e8161075b565b811461077957600080fd5b50565b60008135905061078b81610765565b92915050565b600080fd5b600080fd5b600080fd5b60008083601f8401126107b6576107b5610791565b5b8235905067ffffffffffffffff8111156107d3576107d2610796565b5b6020830191508360208202830111156107ef576107ee61079b565b5b9250929050565b600073ffffffffffffffffffffffffffffffffffffffff82169050919050565b6000610821826107f6565b9050919050565b61083181610816565b811461083c57600080fd5b50565b60008135905061084e81610828565b92915050565b60008060008060008060a0878903121561087157610870610751565b5b600061087f89828a0161077c565b965050602061089089828a0161077c565b955050604087013567ffffffffffffffff8111156108b1576108b0610756565b5b6108bd89828a016107a0565b945094505060606108d089828a0161083f565b92505060806108e189828a0161077c565b9150509295509295509295565b6108f78161075b565b82525050565b600060208201905061091260008301846108ee565b92915050565b600080600080600080600080610100898b03121561093957610938610751565b5b60006109478b828c0161083f565b98505060206109588b828c0161083f565b97505060406109698b828c0161077c565b965050606061097a8b828c0161077c565b955050608061098b8b828c0161077c565b94505060a061099c8b828c0161077c565b93505060c06109ad8b828c0161083f565b92505060e06109be8b828c0161077c565b9150509295985092959890939650565b6109d781610816565b82525050565b60006020820190506109f260008301846109ce565b92915050565b7f4e487b7100000000000000000000000000000000000000000000000000000000600052603260045260246000fd5b600060208284031215610a3d57610a3c610751565b5b6000610a4b8482850161083f565b91505092915050565b6000606082019050610a6960008301866109ce565b610a7660208301856109ce565b610a8360408301846108ee565b949350505050565b60008115159050919050565b610aa081610a8b565b8114610aab57600080fd5b50565b600081519050610abd81610a97565b92915050565b600060208284031215610ad957610ad8610751565b5b6000610ae784828501610aae565b91505092915050565b6000604082019050610b0560008301856109ce565b610b1260208301846108ee565b9392505050565b600082825260208201905092915050565b7f617070726f7665206661696c65642e0000000000000000000000000000000000600082015250565b6000610b60600f83610b19565b9150610b6b82610b2a565b602082019050919050565b60006020820190508181036000830152610b8f81610b53565b9050919050565b600082825260208201905092915050565b6000819050919050565b610bba81610816565b82525050565b6000610bcc8383610bb1565b60208301905092915050565b6000610be7602084018461083f565b905092915050565b6000602082019050919050565b6000610c088385610b96565b9350610c1382610ba7565b8060005b85811015610c4c57610c298284610bd8565b610c338882610bc0565b9750610c3e83610bef565b925050600181019050610c17565b5085925050509392505050565b600060a082019050610c6e60008301896108ee565b610c7b60208301886108ee565b8181036040830152610c8e818688610bfc565b9050610c9d60608301856109ce565b610caa60808301846108ee565b979650505050505050565b6000601f19601f8301169050919050565b7f4e487b7100000000000000000000000000000000000000000000000000000000600052604160045260246000fd5b610cfe82610cb5565b810181811067ffffffffffffffff82111715610d1d57610d1c610cc6565b5b80604052505050565b6000610d30610747565b9050610d3c8282610cf5565b919050565b600067ffffffffffffffff821115610d5c57610d5b610cc6565b5b602082029050602081019050919050565b600081519050610d7c81610765565b92915050565b6000610d95610d9084610d41565b610d26565b90508083825260208201905060208402830185811115610db857610db761079b565b5b835b81811015610de15780610dcd8882610d6d565b845260208401935050602081019050610dba565b5050509392505050565b600082601f830112610e0057610dff610791565b5b8151610e10848260208601610d82565b91505092915050565b600060208284031215610e2f57610e2e610751565b5b600082015167ffffffffffffffff811115610e4d57610e4c610756565b5b610e5984828501610deb565b91505092915050565b7f4e487b7100000000000000000000000000000000000000000000000000000000600052601160045260246000fd5b6000610e9c8261075b565b9150610ea78361075b565b9250828201905080821115610ebf57610ebe610e62565b5b92915050565b600061010082019050610edb600083018b6109ce565b610ee8602083018a6109ce565b610ef560408301896108ee565b610f0260608301886108ee565b610f0f60808301876108ee565b610f1c60a08301866108ee565b610f2960c08301856109ce565b610f3660e08301846108ee565b9998505050505050505050565b600080600060608486031215610f5c57610f5b610751565b5b6000610f6a86828701610d6d565b9350506020610f7b86828701610d6d565b9250506040610f8c86828701610d6d565b915050925092509256fea2646970667358221220a80cc7168beaa153ada13cb5fb30398e98620a2724033b1d260909394d38e25d64736f6c63430008180033",
  "linkReferences": {},
  "deployedLinkReferences": {}
}